:1000000003308A00022B00000A108A100A118207AE
:1000100028340C34013406342026EF306410C33207
:100020006C362024D81BB11820002026EF30641035
:10003000C3326C362024D81BB1182000A02BE53425
:100040006734A012EC3AA0332010201020102010AA
:100050000000A02BE5346734A012EC3AA033201046
:100060002010201020100000A02BE5346734A012CF
:100070006417253225322532A025670035308400EB
:1000800083130008031951280630F800F701F70B15
:100090004728F80B46287B30F700F70B4D28800BDC
:1000A000442808003C1856288611572886158316C0
:1000B00086118312BC185E2806115F280615831668
:1000C000061183123C196628861067288614831649
:1000D00086108312BC196E2806106F28061483162A
:1000E000061000000612831206160330F700F70B05
:1000F00077288316061283120612080083168612CA
:10010000831286126330F700F70B84288728B9081A
:1001100003198F2883168612831286169328831656
:1001200086128312861200008316061283120612AC
:100130003A0EBB000F30BB053B08BC0052203A080A
:100140000F39BB00BC0052200800831686128312B0
:10015000861283160612831206120F30B5003E2057
:10016000AB012B08023C031CBD280330BC0052200D
:100170000530B5003E20AB0AB1280230BC00522049
:10018000AB012B08033C031CD1282B080420AC0036
:10019000B9012C08BA007E200530B5003E20AB0A1C
:1001A000C1288A110A12132B360BD728DA284030BF
:1001B000B700DB28B70101303502B70737088038B0
:1001C000B800B9013808BA007E20080034080C3A9B
:1001D0000319F128063A0319F928023A0319FF28EE
:1001E0000429B9010130BA007E200230B5003E205A
:1001F00009290130B5000230B600D4200929B9011F
:100200001030BA007E2009290130B9003408BA0044
:100210007E2008000B08AB008B13831603178C1786
:100220000C140000000083120313AB1B8B17031781
:100230000C087F3903195E290313AB0003170D085F
:100240000313AC0003170F080313AD002B08B40011
:10025000E6202C0803178D0003132D0803178F00C9
:1002600003130B08AE008B13831603178C170C14A3
:100270000000000083120313AE1B8B1703170C0D35
:100280000E0D7F3903195E290313AB0003170D0808
:100290000313AC0003170F080313AD002B08B400C1
:1002A000E6202C0803178D0003132D0803178F0079
:1002B0008D0A03198F0A03130A2903170313080071
:1002C000AE01AD01AC01AB010814A01120088316EA
:1002D000870083128711AE01AD01AC01AB01081894
:1002E0006F29AF012F08173C031C9329A011200888
:1002F00083168700831287150310AB0DAC0DAD0D6F
:10030000AE0DA01120088316870083128711081CE8
:1003100091290130AB070318AC0A0319AD0A031980
:10032000AE0AAF0A7229A011200883168700831233
:100330008715AB17A0112008831687008312871139
:100340002B08B0002C08B1002D08B200F830B10520
:100350003208AC003108AB00AD01AE012B08F7004C
:100360002C08F8002D08F9002E08FA0008000B08E8
:10037000AC008B13831603178C170C1400000000BD
:1003800083120313AC1B8B170318EE2903170C08F9
:100390007F390313AC0003170D080313AD000317D7
:1003A0000F080313AE002C08B400E6202D08031735
:1003B0008D0003132E0803178F0003130B08AF00E3
:1003C0008B13831603178C170C1400000000831284
:1003D0000313AF1B8B17AB0BEE290D2A03170C0D64
:1003E0000E0D7F390313AC0003170D080313AD0086
:1003F00003170F080313AE002C08B400E6202D08E5
:1004000003178D0003132E0803178F008D0A03199D
:100410008F0A03100313AB0BB7290800B3010408BC
:10042000B2003310831B33142C0EF038AE00AE072D
:10043000E23EAF00323EB1002C080F39AF07AF07E4
:10044000B107E93EB000B007B0072B0E0F39B00777
:10045000B107B00DB10DB109B10D2B080F39B107BE
:10046000AE0D0730AD000A30B107B003031C342ACB
:10047000B007AF03031C382AAF07AE03031C3C2AA6
:10048000AE07AD03031C402A2D30840083130730D0
:100490003205321384073130040203193217000881
:1004A000F700031D5B2A321B5B2A321A6D2AB21930
:1004B0005B2A20305E2AB21532123030F707AC01C9
:1004C0000408AB002C10831B2C147708B400E62022
:1004D0002B08840083132C188317840A321F4B2A9D
:1004E0000800F801F901F701FA013008031D7B2A21
:1004F0002F080319952A1030B1000310AD0DAE0D71
:10050000F70DFA0D30087A02031D882A2F087702AA
:10051000031C912A2F08F702031CFA033008FA0281
:100520000314F80DF90DB10B7D2A08003208F8010B
:10053000310203189E2A3108F700AA2AF701083071
:10054000B300B10DF70D320877020318F700F80D6C
:10055000B30BA12A080020302C1E3030AD002B0830
:10056000F700AB1FBB2AF709F70A7708AB002D305D
:10057000AD00AC172C142B08B1006430B2009622E9
:100580007708AB0030307807AE002B08B1000A3096
:10059000B200962230307707B00030307807AF00D5
:1005A0002D08F70030302E020319DA2AAC14AC1BE8
:1005B0002C15EE2A2D08AE002030AD0030302F0271
:1005C0000319E62A2C14AC1BAC14EE2A031D2C14C0
:1005D000031DEE2A2E08AF002030AE002C19F52A9C
:1005E000AC18F82A2C18FB2AFE2A2D08B400E620A5
:1005F0002E08B400E6202F08B400E6203008B4002E
:10060000E620080003081F398300FF30A000A60180
:10061000A50183161F149F141F159F1107309C00FE
:1006200083138312A5280130B500B600D4200C3006
:1006300003178D0000308F0003130A210430AB0034
:10064000FA30B5003E20AB0B202B60217808AA00C1
:100650007708A9000130B500B600D4201530031783
:100660008D0000308F0003130A210130B5000230E5
:10067000B600D420602129087702A7007808A800D6
:100680002A08031C2A0FA8022808263C03186D2BF1
:10069000FF3A031D4F2B2708103C03186D2BA801B0
:1006A000A7011E3003178D0000308F0003100730A4
:1006B0000313AB00B721103084002808AC002708D2
:1006C000AB000E22233003178D0000308F00031083
:1006D0000A300313AB00B7210A2C2808033C031C83
:1006E000932B031D772B2708E73C031C932B293002
:1006F00003178D0000308F00031007300313AB0089
:10070000B721103084002808AC002708AB000E2267
:100710002E3003178D0000308F0003100A300313B2
:10072000AB00B7210A2C2808AE002708AD00B001A5
:100730000A30AF0071227708A1002808AE00270810
:10074000AD00B0010A30AF0071227908AC00780822
:10075000AB007908AE007808AD00B0010A30AF00F8
:1007600071227708A2002808AE002708AD00B0016A
:100770006430AF0071227908AC007808AB007908CA
:10078000AE007808AD00B0010A30AF0071227708E2
:10079000A3002808AE002708AD000330B000E83001
:1007A000AF0071227908AC007808AB007908AE0080
:1007B0007808AD00B0010A30AF0071227708A400BC
:1007C000343003178D0000308F00031007300313FF
:1007D000AB00B7212408AB001830AC00AB222E30A0
:1007E000B400E6202308AB001830AC00AB2222088E
:1007F000AB001830AC00AB222108AB001830AC00C5
:10080000AB222030B400E6204B30B400E620673045
:08081000B400E6202A2B63006E
:02400E00420F5F
:00000001FF
;PIC16F877A
;CRC=E55B  CREATED="28-Jun-16 13:45"
